:020000040800F2
:1000000040040020C1010008E70900080F090008AA
:10001000E5090008AB020008950D0008000000008B
:100020000000000000000000000000007D0B000840
:10003000C707000800000000650A0008550C00080A
:10004000DB010008DB010008DB010008DB01000820
:10005000DB010008DB010008DB010008DB01000810
:10006000DB010008DB010008DB010008DB01000800
:10007000DB010008DB010008DB010008DB010008F0
:10008000DB010008DB010008DB010008DB010008E0
:10009000AD020008DB010008DB010008DB010008FD
:1000A000DB010008DB010008DB010008DB010008C0
:1000B000DB010008DB010008DB010008DB010008B0
:1000C000DB010008DB010008DB010008DB010008A0
:1000D000DB010008DB010008DB010008DB01000890
:1000E000DB010008DB010008DB010008DB01000880
:1000F000DB010008DB010008DB010008DB01000870
:10010000DB010008DB010008DB010008DB0100085F
:10011000DB010008DB010008DB010008DB0100084F
:10012000DB010008DB010008DB010008DB0100083F
:10013000DB010008DB010008DB010008DB0100082F
:10014000DB010008DB010008DB010008DB0100081F
:10015000DB010008DB010008DB010008DB0100080F
:10016000DB010008DB010008DB010008DB010008FF
:10017000DB010008DB010008DB010008DB010008EF
:10018000DB010008DB010008DB010008DB010008DF
:10019000DB010008DB010008DB010008DB010008CF
:1001A000DB010008DB010008DB010008DFF80CD0F0
:1001B00000F04AF80048004771120008400400208F
:1001C0000648804706480047FEE7FEE7FEE7FEE7F1
:1001D000FEE7FEE7FEE7FEE7FEE7FEE7590C000854
:1001E000AD0100082DE9F05F0546002092469B46D0
:1001F00088460646814640241BE02846414647463D
:10020000224600F042F853465A46C01A914110D394
:1002100011461846224600F029F82D1A67EB01080E
:100220004F4622460120002100F020F817EB00097C
:100230004E41201EA4F10104DFDC484631462A4627
:100240004346BDE8F09F0000064C074D06E0E0681D
:1002500040F0010394E8070098471034AC42F6D30D
:10026000FFF7A8FFC8150008E8150008202A04DBDE
:10027000203A00FA02F1002070479140C2F12003B9
:1002800020FA03F3194390407047202A04DB203AF8
:1002900021FA02F00021704721FA02F3D040C2F1A6
:1002A00020029140084319467047FEE710B50C4AFA
:1002B00000210C4800F0CAF909480B494268A2F530
:1002C0009853143B05D1027A042A02D1807A082877
:1002D00002D00020086010BD0120086010BD0000A1
:1002E0002C000020006400401000002010B500F039
:1002F000B3F800F097F900F067F9BDE8104000F09E
:1003000087B8000010B50C4988420AD101214C067B
:10031000204600F0C5FB2046BDE81040002100F05B
:10032000BFBB01218C06204600F0BAFB2046BDE889
:100330001040002100F0B4BB00640040F0B5827AA8
:1003400001219140304C226842F0010222602E4D82
:100350001C352A688A432A602B4A067B0C322B4BB9
:10036000002E14D116688E4316604688C78846EA68
:100370000746877A03EBC707C7F840660688878871
:1003800046EA0746877A03EBC707C7F84466067B49
:10039000012E14D116680E4316604288068842EA80
:1003A0000642867A03EBC606C6F84026C2888688CF
:1003B00042EA0642867A03EBC603C3F84426124A91
:1003C000C37A121D3BB113680B4313600E4A0389B5
:1003D000143223B106E013688B431360F6E7136809
:1003E0008B4313600389012B02D113680B43136005
:1003F000407B012802D1286808432860206820F04B
:1004000001002060F0BD0000006600400060004078
:100410001FB500208DF80A008DF80B0001218DF822
:100420000C10ADF8000049F6A402ADF802204FF61A
:10043000FF72ADF80420ADF80620ADF808008DF885
:100440000D106846FFF77AFF01220221014800F0F3
:100450002FF81FBD006400407CB50121022000F090
:1004600003FB124D09220821284600F037FA092221
:100470001146284600F032FA6815009002248DF8E3
:1004800004408DF8054000218DF8061001218DF8FB
:1004900007106946284600F0E3F9E10100918DF864
:1004A00004406946284600F0DBF97CBD00040240A8
:1004B000002A03D042690A434261704742698A4375
:1004C0004261704710B50022036823F00203036005
:1004D000036843F0010303604FF6FF7300E0521C12
:1004E0004468E40701D19A42F9D14268D2073ED06C
:1004F0008A79012A3DD0026822F080020260CA791E
:10050000012A3BD0026822F0400202600A7A012AE6
:1005100039D0026822F0200202604A7A012A37D0DC
:10052000026822F0100202608A7A012A35D002683D
:1005300022F008020260CA7A012A33D0026822F04F
:10054000040202608A78CC78920742EA04620C794D
:1005500042EA04424C79098842EA0452491E0A439D
:10056000C261016821F001010160002120E000204A
:1005700010BD026842F080020260C0E7026842F0EB
:1005800040020260C2E7026842F020020260C4E753
:10059000026842F010020260C6E7026842F00802F8
:1005A0000260C8E7026842F004020260CAE7491C20
:1005B0004268D20701D09942F9D14068C00701D002
:1005C000002010BD012010BD3EB50121480600F0FD
:1005D00059FA134C2046FFF795FE684600F088F85C
:1005E00000218DF8061001228DF807208DF80820D3
:1005F0008DF809108DF80A108DF80B108DF8021087
:100600008DF8032004208DF8040002208DF80500E9
:100610000520ADF8000069462046FFF753FF3EBDB8
:100620000064004008B54FF4C06000F011FA1420D7
:100630008DF8000000208DF801008DF802000120E7
:100640008DF80300684600F0CFF908BD10B500EB47
:100650000113D3F8B04104F004041472002C2CD020
:10066000D3F8B041E408546003F5D8731C6804F073
:10067000020454725C6804F00F0494725C68240AEB
:10068000D4749C68D4729C68240A14739C68240CEB
:1006900054739C68240E9473DC68D473DC68240A59
:1006A0001474DC68240C5474DB681B0E937449B119
:1006B000016941F02001016110BDD3F8B041640D22
:1006C0001460D1E7C16841F02001C16010BD002174
:1006D00041F2143242600422027200224272082265
:1006E00082724218D172491CC9B20829F9D37047E5
:1006F00000218171C171017241728172C172817078
:10070000C1700321017102214171012101807047F3
:1007100030B50246002093685B010AD4906800015E
:1007200001D5012005E09068C00001D5022000E05D
:10073000042004283BD002EB0012D2F8803103F0F1
:100740000103C2F880310B7A93B3D2F880414D682F
:100750001C434B7A43EAC5031C43C2F880418B7AA1
:1007600003F00F038B7202F5C072536823F00F037E
:10077000536053688C7A23435360CB7A8C7B0D7B18
:1007800043EA04634C7B240444EA05242343936036
:10079000CB7B8C7C43EA04634C7C097C240444EAD4
:1007A00001210B43D360116841F00101116030BD9C
:1007B000FFE7D2F880314C7A23430C8843EA445354
:1007C000C2F88031CBE7704770B586B0012108468A
:1007D00000F04AF90121102000F070F91E4E0722A6
:1007E0000A21304600F07AF807220921304600F04D
:1007F00075F800248DF8164001208DF817000225A9
:100800008DF81450410204918DF8155004A930461A
:1008100000F026F88DF814506802049004A93046C0
:1008200000F01EF84FF4E1300090ADF80440ADF850
:100830000640ADF80840ADF80C400C20ADF80A00B9
:10084000064C6946204600F043FA0121204600F09C
:100850002BFA06B070BD00000000024000100140FD
:100860002DE9F041002201274FF0030C07FA02F5B1
:100870000B682B40AB422CD1066853000CFA03F4F2
:10088000A64306600E79D0F800809E4046EA08062E
:1008900006600E79012E01D0022E12D18668A64381
:1008A00086604E79D0F808809E4046EA0806866049
:1008B0004668AE43466045688E799640B6B2354389
:1008C0004560C568A543C560CC799C40C3681C439E
:1008D000C460521C102AC9D3BDE8F08110B54B0783
:1008E000DB0E9A40C90800EB8100016A0F249C408E
:1008F000A1430162016A1143016210BD024600205A
:1009000012690A4200D00120704741837047FEE718
:100910001CB50121052000F0A7F80120009000205F
:100920008DF804008DF80700064C69462046FFF755
:1009300097FF4FF40051009169462046FFF790FF62
:100940001CBD00000008024070B504460D46294653
:100950002046FFF7D3FF012801D0002070BD2946B3
:100960002046FFF7CBFF0128F9D0012070BD000021
:100970002DE9FC410121882000F076F84FF48065D4
:10098000009501218DF8041000208DF806008DF8E7
:1009900007108DF80500114F69463846FFF760FFD4
:1009A0006C00009469463846FFF75AFF66000096CF
:1009B00069463846FFF754FF0094094F69463846A8
:1009C000FFF74EFF054918310D800C800E8021463F
:1009D0003846FFF79AFFBDE8FC810000001C02408A
:1009E000000C0240FEE7704730B50F23C2780125A6
:1009F0000178002A1FD0154A126802F4E062C2F59D
:100A0000E062C2F30722C2F10404D3404278A2405C
:100A100084781C401443220101F1E02181F8002474
:100A2000007800F01F018D404009800000F1E020B7
:100A3000C0F8005130BD01F01F008540480980001A
:100A400000F1E020C0F8805130BD00000CED00E066
:100A50000249084302490860704700000000FA0597
:100A60000CED00E070470000054A002903D0116832
:100A700001431160704711688143116070470000A5
:100A800030380240054A002903D011680143116043
:100A90007047116881431160704700004038024080
:100AA000054A002903D0116801431160704711689D
:100AB000814311607047000020380240054A002938
:100AC00003D01168014311607047116881431160C0
:100AD000704700004438024070B5244B196801F09B
:100AE0000C01234C00291ED0224E04291DD00829B8
:100AF0001DD00460196801F0F00109091E4A545C18
:100B00000168E14041601C6804F4E054A40A145DEB
:100B100021FA04F484601B6803F460435B0BD25C2D
:100B2000D140C16070BD0460E4E70660E2E70F4AAF
:100B3000121F1168C1F38055116801F03F0135B1F2
:100B4000B6FBF1F11468C4F38814614305E0B4FB0B
:100B5000F1F11468C4F3881461431268C2F30142CE
:100B6000521C5200B1FBF2F10160C3E708380240A9
:100B70000024F40040787D01000000207047000050
:100B80001CB50021019100912E4A106840F480307C
:100B900010604FF4A043106800F4003000900198FA
:100BA000401C0190009810B901989842F3D1106848
:100BB000800302D50120009000E0009100980128F8
:100BC0003FD120484030016841F0805101601E490A
:100BD000086840F4404008601A4808300368036021
:100BE000036843F400430360036843F4A0530360C5
:100BF000041F164B2360136843F08073136013685F
:100C00009B01FCD50A6842F480320A604A68D2032C
:100C1000FCD50A6842F400320A604A689203FCD5A7
:100C20000B4A40F205711160016821F00301016077
:100C3000016841F0020101600168C1F381010229EC
:100C4000FAD11CBD0038024000700040195A40071C
:100C5000003C02407047000010B50F48016841F0A9
:100C6000010101600C4A00210832116002680B4B3F
:100C70001A400260031D0A4A1A60026822F48022A8
:100C8000026005480C300160FFF77AFF05494FF01C
:100C90000060086010BD000000380240FFFFF6FE53
:100CA0001030002408ED00E0002904D0818941F4CF
:100CB000005181817047818921F400518181704701
:100CC0000246002012880A4200D00120704700002E
:100CD0007FB504460D46208A20F44051E888084339
:100CE0002082A08941F20C618843A9882A89114396
:100CF0006A8902431143A181A08A20F44071A88926
:100D00000843A0826846FFF7E7FE1E48844202D0EF
:100D10001D48844201D1039800E00298A18909048A
:100D200008D500EBC00101EB001029684900B0FBB9
:100D3000F1F007E000EBC00101EB00102968890029
:100D4000B0FBF1F06422B0FBF2F109010B096FF086
:100D500018056B4300EB8300A3891D044FF0320399
:100D600007D503EBC000B0FBF2F000F0070008432A
:100D700006E003EB0010B0FBF2F000F00F000843B8
:100D800020817FBD0010014000140140C1F3080123
:100D900081807047FEE700000FB4054B10B503A932
:100DA000044A029800F018F810BC5DF814FB00002B
:100DB0004D1200081400002002E008C8121F08C1EC
:100DC000002AFAD170477047002001E001C1121FCC
:100DD000002AFBD1704700002DE9FF4F8DB00F4670
:100DE0000546002606E025280BD0DDE90F129047C6
:100DF0006D1C761C28780028F5D111B03046BDE86E
:100E0000F08F0024A246A1460122EC4900E00443F1
:100E100015F8013F203B02FA03F00842F7D1287889
:100E20002A2810D06FF02F022878A0F1300109296C
:100E300014D80AEB8A0102EB410144F0020400EBF2
:100E4000010A6D1CF0E701CF5FEA000A03D544F404
:100E50000054CAF1000A44F002046D1C28782E28C0
:100E600017D115F8010F44F004042A280ED06FF0B2
:100E70002F022878A0F1300109290AD809EB89014D
:100E800002EB410100EB01096D1CF2E757F8049BEE
:100E90006D1C28786C280FD006DC4C2817D06828E9
:100EA0000DD06A2814D104E0742810D07A280FD10C
:100EB0000DE044F400140AE044F4801401E044F42A
:100EC00040146978814202D104F580146D1C6D1CB8
:100ED0002A786E2A1FD00CDC632A31D004DC002A69
:100EE0008BD0582A11D1A3E0642A68D0692A0CD18A
:100EF00065E0732A2ED004DC6F2A73D0702A04D1E7
:100F00009BE0752A6FD0782A6ED01046DDE90F126B
:100F10009047761C50E1C4F30250022806D0032803
:100F200009D0042801CF09D0066045E101CFF117AF
:100F3000C0E9006140E101CF06803DE106703BE180
:100F400017F8040B8DF8000000208DF80100EB4627
:100F5000012003E057F804BB4FF0FF3061074FF06A
:100F6000000102D40DE008F10101884649450FDA7D
:100F70008045F8DB1BF808100029F4D108E008F1DF
:100F8000010188468142FADB1BF808100029F6D1DE
:100F9000DDE90F23AAEB08008146214600F036F96F
:100FA000304400EB080604E0DDE90F121BF8010BEA
:100FB0009047B8F10108F7D221464846F7E00A21E8
:100FC000C4F302534FF0000B0891022B04D001CF61
:100FD000C117032B09D00AE0FF1D27F00707F7E828
:100FE000020108E032E01FE020E000B2C117042B4C
:100FF00001D140B2C117031E71F1000307DA4FF0AF
:10100000000CD0EB0C006CEB01012D2302E023055A
:1010100004D52B238DF82430012303E0E30701D00E
:101020002023F7E7984658E00A2110E010210EE04F
:1010300010204FF0000B08900CE010214FF0000B37
:1010400044F004044FF00809089103E008214FF030
:10105000000B0891C4F30253022B04D001CF0021EE
:10106000032B06D006E0FF1D27F00707F7E8020173
:1010700003E080B2042B00D1C0B24FF00008230778
:101080002BD5702A07D0DDF820C08CF0100C5CEA5C
:101090000B0C05D00EE040238DF82430012308E02E
:1010A00050EA010306D030238DF824308DF8252036
:1010B00002239846DDF820C08CF0080C5CEA0B0C8B
:1010C0000BD150EA010301D1630706D530238DF817
:1010D00024304FF00108A9F10109582A04D038A2A0
:1010E0000B9208AA0A920BE03AA2F9E75B46089A2B
:1010F000FFF778F80B9B9B5C0A9A521E0A921370BA
:1011000050EA0102F2D10A98ADEB000000F1200B89
:10111000600702D524F4803401E04FF00109D9457D
:1011200002DDA9EB0B0000E0002000EB0B014144C5
:101130000890AAEB010AE00306D4DDE90F2321465B
:10114000504600F063F806444FF0000908E009A992
:1011500011F80900DDE90F12904709F10109761C29
:10116000C145F4DBE0030CD5DDE90F2321465046F1
:1011700000F04CF8064404E0DDE90F1230209047FF
:10118000761C0899481E08900029F5DC08E00A98AA
:101190000A990078491C0A91DDE90F129047761CE4
:1011A000BBF10001ABF1010BF1DC21465046DDE95A
:1011B0000F2300F019F806446D1C1BE609280100F6
:1011C00030313233343536373839616263646566BD
:1011D000000000003031323334353637383941427F
:1011E00043444546000000002DE9F0410446002537
:1011F0001E461746880404D405E039462020B0472F
:101200006D1C641EF9D52846BDE8F0812DE9F0413A
:10121000044600251E469046C80301D5302700E04D
:101220002027880404D505E041463846B0476D1CA8
:10123000641EF9D52846BDE8F08101B502E00098AA
:10124000401E009000980028F9D108BD70B50446F2
:10125000064DE1B22846FFF799FD80212846FFF7A9
:101260002FFD0028F9D0204670BD0000001001407D
:10127000FFF77EFBFFF7A8FAFFF74AFBFFF736F808
:101280004AA0FFF789FD53A0FFF786FD59A0FFF79D
:1012900083FD5CA0FFF780FD63A0FFF77DFD6C4838
:1012A000FFF77AFD6B48FFF777FD6BA0FFF774FD42
:1012B000784CDFF8E4B1E514A614A71C4FF00A0936
:1012C00001217648FFF740FB01283FD14FF48068A9
:1012D000A4F8008025803E807148FFF7F8F9704936
:1012E0007048FFF715FA42F21070FFF7A6FFA4F856
:1012F00000803D8026806CA0FFF74EFD71A0FFF7B7
:101300004BFD6748416875A0FFF746FDDFF890A1E7
:101310000AF10B0A78A0FFF73FFD4FF000087CA010
:101320001AF80810FFF738FD08F1010090FBF9F1F9
:1013300009FB110010B92EA0FFF72EFD08F10108DE
:10134000B8F1080FEBDB2AA0FFF726FDDBF8000061
:101350000128B5D1800220803D8026806EA0FFF755
:101360001BFDDFF83CA10AF11F0A63A0FFF714FD83
:101370004FF0000866A01AF80810FFF70DFD08F1FD
:10138000010090FBF9F109FB110010B918A0FFF75B
:1013900003FD08F10108B8F1080FEBDB14A0FFF71B
:1013A000FBFC0020CBF800008AE700000D0A20BB00
:1013B000B6D3ADCAB9D3C3B1FCBBF0202053544D52
:1013C0003332204634323920BFAAB7A2B0E5A1A3F8
:1013D0000D0A00000D0A20B1FCBBF0463432392062
:1013E00043414ECDA8D1B6CAB5D1E9C0FDB3CC0DAD
:1013F0000A0000000D0A20CAB5D1E9B2BDD6E8A3A3
:10140000BA0D0A000D0A20312ECAB9D3C3B5BCCF1C
:10141000DFC1ACBDD3BAC3C1BDB8F643414ED1B6EE
:10142000C9E8B1B80D0A00000D0A20322ECAB9D39E
:10143000C3CCF8CFDFC3B1C1ACBDD3BAC33A3576A4
:10144000202D2D2D20432F342D3556200D0A000040
:101450002C1500087C1500080D0A20352EB1BEC0E1
:10146000FDD6D0B5C463616EB2A8CCD8C2CACEAA2C
:10147000314D427073A3ACCEAA73746D3332B5C4D0
:1014800063616ED7EEB8DFCBD9C2CAA1A3200D0A23
:1014900000000000181C0240100000200000024064
:1014A00018000020006400400D0AD2D1CAB9D3C38D
:1014B00043414EB7A2CBCDCAFDBEDDB0FCA3A10D0A
:1014C0000A0000000D0AB7A2CBCDB5C4B1A8CEC4A6
:1014D000C4DAC8DDCEAAA3BA0D0A00000D0A20C0E6
:1014E000A9D5B94944BAC54578744964A3BA3078D6
:1014F0002578200D0A0000003C3C2D43414E2D4430
:10150000454255472D41525241592D3E3E0A000059
:1015100025303278202020000D0A43414EBDD3CA29
:10152000D5B5BDCAFDBEDDA3BA0D0A000D0A203334
:101530002EB0B4CFC2BFAAB7A2B0E5B5C44B4559CF
:1015400031BCFCA3ACBBE1CAB9D3C343414ECFF21B
:10155000CDE2B7A2CBCD302D37B5C4CAFDBEDDB0CC
:10156000FCA3ACB0FCB5C4C0A9D5B94944CEAA30DF
:101570007831333134200D0A000000000D0A203488
:101580002EC8F4BFAAB7A2B0E5B5C443414EBDD33F
:10159000CAD5B5BDC0A9D5B94944CEAA3078313332
:1015A0003134B5C4CAFDBEDDB0FCA3ACBBE1B0D1E3
:1015B000CAFDBEDDD2D4B4F2D3A1B5BDB4AEBFDA9C
:1015C000A1A3200D0A000000E8150008000000207B
:1015D00018000000B80D00080016000818000020D0
:1015E00028040000C80D00080000000001020304E8
:1015F00001020304060708090000000000000000C3
:04000005080001AD41
:00000001FF
