:020000040800F2
:1000000040100020C10100083717000853160008EF
:1000100035170008C9060008752200080000000016
:10002000000000000000000000000000DD1A0008D1
:10003000951300080000000009190008B91B00080A
:10004000DB010008DB010008DB010008DB01000820
:10005000DB010008DB010008DB010008DB01000810
:10006000DB010008DB010008DB010008DB01000800
:10007000DB010008DB010008DB010008DB010008F0
:10008000DB010008DB010008DB010008DB010008E0
:10009000CD060008DB010008DB010008DB010008D9
:1000A000DB010008DB010008DB010008DB010008C0
:1000B000DF1D0008711E0008DB010008DB010008DD
:1000C000DB010008DB010008DB010008DB010008A0
:1000D000DB010008F91F0008A5200008DB0100086B
:1000E000DB010008DB010008DB010008DB01000880
:1000F000DB010008DB010008DB010008DB01000870
:10010000DB010008DB010008DB010008DB0100085F
:10011000851F0008DB010008DB010008DB01000887
:10012000DB010008DB010008DB010008DB0100083F
:10013000DB010008DB010008DB010008DB0100082F
:10014000DB010008DB010008DB010008DB0100081F
:10015000DB010008DB010008DB010008DB0100080F
:10016000DB010008DB010008DB010008DB010008FF
:10017000DB010008DB010008DB010008DB010008EF
:10018000DB010008DB010008DB010008DB010008DF
:10019000DB010008DB010008DB010008DB010008CF
:1001A000DB010008DB010008DB010008DFF80CD0F0
:1001B00000F01EF900480047E92600084010002022
:1001C0000648804706480047FEE7FEE7FEE7FEE7F1
:1001D000FEE7FEE7FEE7FEE7FEE7FEE7751D000827
:1001E000AD0100082DE9FE4F81EA030404F000444C
:1001F00021F0004100944FF0000B23F0004350EA3F
:1002000001045ED052EA03045BD0C3F30A54C1F385
:100210000A552C44A4F2F3340194A0FB0254C1F318
:10022000130141F48011C3F3130343F4801301FB62
:10023000024400FB034E840A970A44EA815447EAC9
:100240008357A4FB076802958D0A05FB07854FEAD3
:10025000932C04FB0C542705029D4FEA065847EAED
:100260001637B5EB08056EEB070C870E920E47EAC2
:10027000811742EA8312A7FB0201B6EB0B0164EB84
:1002800000042B0D43EA0C335E1844EB1C50DA4695
:100290005146E7FB0201C5F313044FEA0B3343EA6F
:1002A00014534FEA0432019C43EA0603A4F10C0400
:1002B0000294009CCDE900B400F04BF803B0BDE817
:1002C000F08F00200146F9E70EB540F2334102916C
:1002D0000021CDE900110A460B4600F03AF803B0C0
:1002E00000BDC1F30A5210B5C1F3130140F2FF3350
:1002F00041F480119A4201DA002010BD40F23343EC
:100300009A42A2F2334203DC524200F003F810BDDD
:10031000904010BD202A04DB203A21FA02F000218F
:10032000704721FA02F3D040C2F120029140084305
:100330001946704710B5141E73F1000408DA401C0A
:1003400041F1000192185B411A4301D120F00100F4
:1003500010BD2DE9F04D92469B4611B1B1FA81F2E4
:1003600002E0B0FA80F22032904600F053F80446E2
:100370000F4640EA0A0041EA0B0153465A46084339
:1003800013D0114653EA010019D0C8F1400250467B
:10039000FFF7C0FF05460E4650465946424600F05C
:1003A00039F8084305D0012004E020463946BDE86D
:1003B000F08D0020054346EAE0762C4337430A9847
:1003C0006305E40AA0EB08000022FD0A44EA475452
:1003D0000A3002D500200146E9E7010510196941FC
:1003E000DDE9084500196941BDE8F04DA2E70000CC
:1003F000064C074D06E0E06840F0010394E8070072
:1004000098471034AC42F6D3FFF7D4FE50450008AD
:1004100070450008202A04DB203A00FA02F100208F
:1004200070479140C2F1200320FA03F31943904032
:100430007047002904D0816841F001018160704754
:10044000816821F0010181607047000010B5074C00
:10045000226807490A40D0E900131943D0E9023065
:10046000034319431143216010BD000004230140E0
:10047000E030FCFF30B542680F4B1A400C790B6836
:1004800042EA04221343436083680C4A1340D1E9D3
:10049000034222434D798C6844EA450422431A43BF
:1004A0008260C26A22F47002097D491EC9B242EA22
:1004B0000151C16230BD0000FFFEFFFCFDF7FFC02F
:1004C00070B5072609290AD9C568A1F10A0404EB09
:1004D0004404A640B543A3401D43C56007E0056939
:1004E00001EB4104A640B543A3401D4305611F2312
:1004F000072A09D2446B521E02EB820293409C43AE
:1005000091400C43446370BD0D2A09D2046BD21F85
:1005100002EB820293409C4391400C43046370BD04
:10052000C46A0D3A02EB820293409C4391400C4313
:10053000C46270BD30B58DB00121042001F0E6F930
:1005400001210D02284601F00BFA02210B91032133
:100550008DF8301000248DF833400BA9164801F0B7
:100560001FF80121284601F009FA0021284601F070
:1005700005FA07940A9409942802089007A8FFF73F
:1005800065FF01948DF808408DF8094003940594A7
:1005900001208DF81800094C01A92046FFF76AFFD9
:1005A0000723012205212046FFF78AFF012120466B
:1005B000FFF73FFF0DB030BD0008024000200140B2
:1005C00070B58AB00121084601F0A0F90121102080
:1005D00001F0C6F9254E07220921304601F01EF828
:1005E00007220A21304601F019F84FF4C061089142
:1005F00002218DF824108DF8251000248DF8264056
:1006000001258DF8275008A9304600F0C9FF4FF4A6
:10061000E1300490ADF81440ADF81640ADF8184044
:10062000ADF81C400C20ADF81A00114E04A930465C
:1006300001F0BEFDADF80440ADF806406902ADF82A
:100640000810ADF80A4001A9304601F055FD2520FB
:100650008DF80C008DF80D4004208DF80E008DF8FB
:100660000F5003A801F07CF80AB070BD00000240F2
:100670000010014010B5084C4021204601F030FD2B
:10068000012240F22551204601F077FD2046BDE8C9
:100690001040012101F03EBD0010014010B5094C91
:1006A000208900280DD001F029FF00B2022100F0BE
:1006B0007BFB84F87D00FF2803D1BDE8104000F0EB
:1006C0008BBB10BD8E060020FEE7000010B51F4C4E
:1006D0000221204600F066F968B11D4800F0BAFF1B
:1006E0000221204600F03CF8194A0021204600F083
:1006F0008DFA01F0EDFE164C16496068884207D16C
:10070000207A042804D1A07A082801D101F0E0FE63
:1007100011496068884217D1207A042814D1A07A40
:10072000082811D10D49E07A0871207B627B40EAEC
:10073000022048806422B0FBF2F00880097BBDE80B
:100740001040C0B202F0B8BB10BD00000064004011
:10075000A40000200505F5189A10F810B007002035
:1007600030B5082310240422B1F5007F33D011DC0A
:1007700020292AD007DC012922D0042923D00829E6
:1007800000D1C46030BD402921D0B1F5807FF9D1BE
:10079000426030BD0025B1F5004F20D008DCB1F536
:1007A000806F1AD0B1F5006FF3D18561426030BD22
:1007B000B1F5803F0DD0B1F5003FF8D1446030BDB8
:1007C0000849816030BDC36030BD036130BD046144
:1007D00030BD436030BD426030BD426030BD856198
:1007E000426030BD0101010010B500F0AFF800F02B
:1007F000F9F900F0C9F9BDE8104000F087B8000031
:1008000010B50C4988420AD101214C06204601F05E
:1008100099F82046BDE81040002101F093B801216D
:100820008C06204601F08EF82046BDE810400021DD
:1008300001F088B800640040F0B5827A012191404F
:10084000304C226842F0010222602E4D1C352A688D
:100850008A432A602B4A067B0C322B4B002E14D184
:1008600016688E4316604688C78846EA0746877A28
:1008700003EBC707C7F840660688878846EA07463D
:10088000877A03EBC707C7F84466067B012E14D1AD
:1008900016680E4316604288068842EA0642867A47
:1008A00003EBC606C6F84026C288868842EA06429E
:1008B000867A03EBC603C3F84426124AC37A121D94
:1008C0003BB113680B4313600E4A0389143223B102
:1008D00006E013688B431360F6E713688B431360DD
:1008E0000389012B02D113680B431360407B01285D
:1008F00002D1286808432860206820F001002060A9
:10090000F0BD000000660040006000401FB5002000
:100910008DF80A008DF80B0001218DF80C10ADF850
:100920000000ADF80200ADF80400ADF80600ADF827
:1009300008008DF80D106846FFF77EFF01220221A6
:10094000014800F095F81FBD006400407CB501210E
:10095000022000F0DBFF124D09220821284600F09A
:100960005DFE09221146284600F058FE68150090E9
:1009700002248DF804408DF8054000218DF8061002
:1009800001218DF807106946284600F009FEE101B3
:1009900000918DF804406946284600F001FE7CBDB8
:1009A000000402400246002053690B425DD0B1F5BD
:1009B000807F4AD016DC082937D009DC01292CD0E9
:1009C00002292ED0042950D1D068082100F0E5B9C1
:1009D00010292ED0202930D0402946D1106910216D
:1009E00000F0DBB9B1F5004F3BD00CDCB1F5007F76
:1009F0002FD0B1F5806F30D0B1F5006F35D190694F
:100A0000702100F0CAB9B1F5803F1AD0B1F5003FAE
:100A10002BD15068102100F0C0B99068134900F044
:100A2000BCB9D068032100F0B8B9D068102100F03B
:100A3000B4B91069032100F0B0B91069082100F0C1
:100A4000ACB95068082100F0A8B99069012100F004
:100A5000A4B99069022100F0A0B99069042100F0C6
:100A60009CB95068042100F098B970470101010059
:100A7000002A03D042690A434261704742698A43AF
:100A80004261704710B50022036823F0020303603F
:100A9000036843F0010303604FF6FF7300E0521C4C
:100AA0004468E40701D19A42F9D14268D2073ED0A6
:100AB0008A79012A3DD0026822F080020260CA7958
:100AC000012A3BD0026822F0400202600A7A012A21
:100AD00039D0026822F0200202604A7A012A37D017
:100AE000026822F0100202608A7A012A35D0026878
:100AF00022F008020260CA7A012A33D0026822F08A
:100B0000040202608A78CC78920742EA04620C7987
:100B100042EA04424C79098842EA0452491E0A43D7
:100B2000C261016821F001010160002120E0002084
:100B300010BD026842F080020260C0E7026842F025
:100B400040020260C2E7026842F020020260C4E78D
:100B5000026842F010020260C6E7026842F0080232
:100B60000260C8E7026842F004020260CAE7491C5A
:100B70004268D20701D09942F9D14068C00701D03C
:100B8000002010BD012010BD3EB50121480600F037
:100B9000CBFE134C2046FFF733FE684600F092F878
:100BA00000218DF8061001228DF807208DF808200D
:100BB0008DF809108DF80A108DF80B108DF80210C1
:100BC0008DF8032004208DF8040002208DF8050024
:100BD0001420ADF8000069462046FFF753FF3EBDE4
:100BE0000064004008B54FF4C06000F0EDFD142033
:100BF0008DF8000000208DF801008DF80200012022
:100C00008DF80300684600F0ABFD08BD10B500EBA1
:100C10000113D3F8B04104F004041472002C2CD05A
:100C2000D3F8B041E408546003F5D8731C6804F0AD
:100C3000020454725C6804F00F0494725C68240A25
:100C4000D4749C68D4729C68240A14739C68240C25
:100C500054739C68240E9473DC68D473DC68240A93
:100C60001474DC68240C5474DB681B0E937449B153
:100C7000016941F02001016110BDD3F8B041640D5C
:100C80001460D1E7C16841F02001C16010BD0000CF
:100C900030B50B4C446004240472002444720825CF
:100CA0008572FF25C5727725057344738473C173FC
:100CB000027443745140594081F08801817430BD01
:100CC0009A10F81000218171C17101724172817214
:100CD000C1728170C1700321017102214171012132
:100CE0000180704730B50246002093685B010AD44A
:100CF0009068000101D5012005E09068C00001D591
:100D0000022000E0042004283BD002EB0012D2F8BD
:100D1000803103F00103C2F880310B7A93B3D2F82B
:100D200080414D681C434B7A43EAC5031C43C2F81B
:100D300080418B7A03F00F038B7202F5C072536807
:100D400023F00F03536053688C7A23435360CB7AAC
:100D50008C7B0D7B43EA04634C7B240444EA05242A
:100D600023439360CB7B8C7C43EA04634C7C097CFB
:100D7000240444EA01210B43D360116841F00101CE
:100D8000116030BDFFE7D2F880314C7A23430C88E4
:100D900043EA4453C2F88031CBE7024600200A42BE
:100DA00000D00120704700000A4AB2F9063098428C
:100DB00003D113895B1C138101E000231381D080D0
:100DC000B2F90800884203DD491C1181FF207047F9
:100DD0000020704778000020034800210170017155
:100DE00041708170C17070478E06002010B500F010
:100DF00021FA4FF40041052001F058FBBDE81040F6
:100E0000002002F049B800002DE9F0413B4E308847
:100E1000401C80B230804CF250310024884200D90E
:100E200034803088354DC10705F1020500D16C7062
:100E300080070AD1AC703248324F007831280CD08C
:100E400038784FF4004101F031FB30880A21B0FBC3
:100E5000F1F201FB120020B326E0B7F90E00DFF833
:100E6000A88000EE100AB8EEC00A88ED000AB86843
:100E7000404200EE100AB8EEC00A88ED010A404672
:100E800000F0ACFC98ED0A0ADFED200A30EE200AF3
:100E9000BCEEC00A10EE100A81B2387801F006FBF1
:100EA000D3E7EC70FFF7FAFB30881421B0FBF1F2C6
:100EB00001FB1200164F58B92C7197F87D0010B144
:100EC000FF2803D004E000F0B9FD01E0FFF78EFF3A
:100ED00030886421B0FBF1F201FB120101B96C71A1
:100EE000C821B0FBF1F201FB1200002804D1AC7163
:100EF00037F8460F401C3880BDE8F08184000020A0
:100F00008A070020B0070020C0070020000000472B
:100F10008E0600200122064B8240002903D018686B
:100F200010431860704718689043186070470000BD
:100F3000007400407CB50121084600F0E7FC012167
:100F4000480700F0F1FC1020009003208DF8040009
:100F500000248DF80740124D6946284600F020FB1A
:100F6000202100916946284600F01AFB0D482C21EB
:100F700001604460C4600146002000F073F8094934
:100F8000102000F06FF801210020FFF7C3FF0121BE
:100F90001020FFF7BFFF0121002000F005F87CBD05
:100FA00000000240D4050020064B9A14824000291C
:100FB00003D0186810431860704718689043186091
:100FC000704700000074004000B58FB00121480553
:100FD00000F09CFC4FF060600090104801901048B9
:100FE0000290402003904FF4FA7004900020059086
:100FF0004FF480610691890007918900089109905A
:10100000C9000A910B9003210C910D900E90694636
:10101000044800F07DF80FB000BD000020740040CF
:10102000EC010020886002401CB50121084600F058
:101030006DFC03208DF8040000218DF8061030228D
:1010400000928DF807108DF80500054C6946204682
:1010500000F0A6FA6946204600F0A2FA1CBD000086
:101060000000024030B5084C236840F6FE72824012
:101070009343D1E900252A43D1E902510D432A4384
:1010800082401A43226030BD0074004010B5FFF763
:1010900051FF00F01FF8BDE81040FFF795BF0000BA
:1010A00008B5034A1044143000900098016008BD50
:1010B0000074004002090120054B9040002903D034
:1010C00019680143196070471968814319607047B6
:1010D000047400403EB50121042000F025FC40F2DC
:1010E0008F10019040F20770ADF800000020ADF8BD
:1010F0000800ADF80200054C6946204600F0FAFEF3
:101100002021204600F0EEFE3EBD00000008004019
:1011100030B50368124A1340CC680A682243D1E90B
:1011200005452C432243CC6922430C6A22434C6A76
:1011300022438C6A22434C6B22438C6B22431A431A
:101140000260426922F00703D1E90B2422431A43CB
:1011500042610A6942604A6882608968C16030BD44
:101160003F801CF010B5054C0821204600F06FFAB6
:101170002046BDE81040402100F067BA0000024060
:1011800010B5054C0821204600F05FFA2046BDE866
:101190001040402100F05BBA000002401CB5012164
:1011A000084600F0B3FB0820009001208DF80400F1
:1011B00000208DF8060002208DF80500194C6946C4
:1011C000204600F0EDF9402100916946204600F0EC
:1011D000E7F90821204600F038FA4021204600F0C7
:1011E00034FA0121802000F091FB4FF4DC70009074
:1011F00069460D4800F0D4F90121080200F086FB91
:10120000E01400906946094800F0CAF90121102055
:1012100000F07CFB4FF4005000906946044800F059
:10122000BFF91CBD00000240001C0240002002402B
:101230000010024010B5054C0821204600F005FAC8
:101240002046BDE81040402100F0FFB900000240F8
:1012500002480021A0F84610018170478E06002048
:1012600070B4274D274BA978002901D1AA2802D0B4
:10127000012905D006E00121A970187070BC7047E3
:10128000AF2802D0022904D009E00221A9705870C9
:10129000F4E7042803D20321A9709870EEE703292C
:1012A00003D00026042904D00BE00421A970D870D3
:1012B000E4E7322805D20521A970187128706E70F4
:1012C000DCE70F4A052952780DD12C785CB1641EF9
:1012D000E1B22970541C1A446C7050710029CDD1B0
:1012E0000620A870CAE7062901D0AE70C6E7AE7026
:1012F0009918487170BC921DD1B2024800F004B830
:1013000078000020F805002030B5002300224C1E94
:1013100004E0855C2B44DBB2521CD2B2A242F8DB63
:10132000014411F8011C994230D10178AA292DD12C
:101330004178AF292AD1164A81781170C378137188
:1013400003795371012921D102F1FC0143790B701A
:1013500083794B70C3790B72037A4B72437A8B7229
:10136000837AC47A43EA04234B80037B447B43EAB9
:101370000423CB80837BC47B43EA0423CB81037C9F
:10138000407C43EA002088818889108130BD0000BC
:101390008E0600207047000001B5034800990160E7
:1013A00001680029FCD108BD6400002070B58AB036
:1013B0000121042000F0AAFA0121C80400F0B4FAC7
:1013C000254E08220A21304600F028F908220B2178
:1013D000304600F023F94FF44061089102218DF866
:1013E00024108DF8251000248DF8264001258DF855
:1013F000275008A9304600F0D3F84FF4E1300490AC
:10140000ADF81440ADF81640ADF81840ADF81C40EA
:101410000C20ADF81A00114E04A9304600F0C8FEA9
:10142000ADF80440ADF806406902ADF80810ADF81B
:101430000A4001A9304600F05FFE34208DF80C0010
:101440008DF80D4003208DF80E008DF80F5003A885
:1014500000F086F90AB070BD00080240004C004060
:1014600010B5084C4021204600F03AFE012240F21F
:101470002551204600F081FE2046BDE810400121A4
:1014800000F048BE004C004070B4274D274B6979EE
:10149000002901D1AA2802D0012905D006E00121A6
:1014A0006971187070BC7047AF2802D0022904D04F
:1014B00009E0022169715870F4E7042803D203217E
:1014C00069719870EEE7032903D00026042904D03F
:1014D0000BE004216971D870E4E7322805D20521B8
:1014E00069711871E8702E71DCE70F4A05291279CD
:1014F0000DD1EC785CB1641EE1B2E970541C1A4461
:101500002C7150710029CDD106206871CAE70629D7
:1015100001D06E71C6E76E719918487170BC921D4A
:10152000D1B2024800F004B8780000202A0600205A
:1015300030B5002300224C1E04E0855C2B44DBB256
:10154000521CD2B2A242F8DB014411F8011C9942AC
:1015500022D10178AA291FD14178AF291CD10F4A85
:1015600081781170C17811710179517102F1900186
:1015700043790B7283790B71C379047A43EA0423AC
:10158000CB81437A8B72837AC07A43EA00208881C8
:10159000A1F112008089108130BD00000C070020ED
:1015A0002DE9F041002201274FF0030C07FA02F564
:1015B0000B682B40AB422CD1066853000CFA03F4A5
:1015C000A64306600E79D0F800809E4046EA0806E1
:1015D00006600E79012E01D0022E12D18668A64334
:1015E00086604E79D0F808809E4046EA08068660FC
:1015F0004668AE43466045688E799640B6B235433C
:101600004560C568A543C560CC799C40C3681C4350
:10161000C460521C102AC9D3BDE8F08110B54B0735
:10162000DB0E9A40C90800EB8100016A0F249C4040
:10163000A1430162016A1143016210BD024600200C
:1016400012690A4200D0012070474183704701832C
:101650007047FEE70021002202604260042303720B
:101660008272C2744318DA72491CC9B20829F9D3CC
:10167000704700002DE9FC410121882000F046F967
:101680004FF48065009501218DF8041000208DF83D
:1016900006008DF807108DF80500114F6946384691
:1016A000FFF77EFF6C00009469463846FFF778FF2D
:1016B0006600009669463846FFF772FF0094094FAE
:1016C00069463846FFF76CFF054918310D800C80DC
:1016D0000E8021463846FFF7B8FFBDE8FC810000C8
:1016E000001C0240000C024010B5FFF79DFC0121D8
:1016F000480700F019F90E48002141603C220260C1
:10170000C16001460020FFF7ADFC09491020FFF73A
:10171000A9FC01211020FFF7FDFB00210846FFF77F
:10172000BFFC0121BDE810401020FFF7C3BC000042
:10173000D4050020FEE7704708B54FF4E06000F0E4
:1017400043F826208DF8000001208DF801008DF867
:1017500002008DF80300684600F002F808BD0000A2
:1017600030B50F23C27801250178002A1FD0154A11
:10177000126802F4E062C2F5E062C2F30722C2F12D
:101780000404D3404278A24084781C4014432201D0
:1017900001F1E02181F80024007800F01F018D4064
:1017A0004009800000F1E020C0F8005130BD01F098
:1017B0001F0085404809800000F1E020C0F88051FA
:1017C00030BD00000CED00E002490843024908600A
:1017D000704700000000FA050CED00E090ED051ADE
:1017E00080ED061A90ED000AD0ED010A30EE600A95
:1017F00080ED050AD0ED080A70EE800AC0ED080AF7
:10180000B0F93C1001EE901AF8EEE11AF4EEE10A9C
:10181000F1EE10FA05DD00EE901AF8EEE00AC0EDE8
:10182000080A494200EE901AD0ED081AF8EEE00AD4
:10183000F4EEE01AF1EE10FA05D200EE901AF8EE8E
:10184000E00AC0ED080AD0ED020AD0ED031A90EDCF
:10185000082A60EE800A30EE410A90ED041A41EE4B
:10186000820A41EE000AC0ED0A0AB0F93E1000EE0D
:10187000101AB8EEC00AF4EEC00AF1EE10FA05DD57
:1018800000EE101AB8EEC00A80ED0A0A494200EED6
:10189000101AD0ED0A0AB8EEC00AF4EEC00AF1EE52
:1018A00010FA05D200EE101AB8EEC00A80ED0A0A4E
:1018B0007047000011489FED100A80ED020AB0EE5B
:1018C000040A80ED030A9FED0E0A80ED040A41F23E
:1018D0009411818741F64C51C1879FED0A0A40302F
:1018E00080ED020A80ED030A80ED040A4FF4FA71DC
:1018F0008187C900C187704700007A43C007002074
:10190000000096430000000070470000054A0029CF
:1019100003D0116801431160704711688143116061
:101920007047000030380240054A002903D0116892
:1019300001431160704711688143116070470000D6
:1019400040380240054A002903D011680143116064
:1019500070471168814311607047000020380240D1
:10196000054A002903D011680143116070471168CE
:10197000814311607047000044380240054A002945
:1019800003D01168014311607047116881431160F1
:10199000704700002438024070B5244B196801F0EC
:1019A0000C01234C00291ED0224E04291DD00829E9
:1019B0001DD00460196801F0F00109091E4A545C49
:1019C0000168E14041601C6804F4E054A40A145D1D
:1019D00021FA04F484601B6803F460435B0BD25C5F
:1019E000D140C16070BD0460E4E70660E2E70F4AE1
:1019F000121F1168C1F38055116801F03F0135B124
:101A0000B6FBF1F11468C4F38814614305E0B4FB3C
:101A1000F1F11468C4F3881461431268C2F30142FF
:101A2000521C5200B1FBF2F10160C3E708380240DA
:101A30000024F40040787D011400002070B5254C8E
:101A40000026207831281FD0022000F019FF2682BE
:101A5000214D208AE881207A02281FD0032820D037
:101A6000FFF7E8FB207A02281ED003281CD0AE81A5
:101A7000A07A01281ED0022821D0032824D0BDE856
:101A80007040002001F090B9012000F0F9FEE089DB
:101A9000323800EB800040002082D9E7FFF770FB6E
:101AA000E0E7FFF75FFBDDE760880A21B0FBF1F0BC
:101AB000A881DDE7BDE87040012001F075B9BDE8FF
:101AC0007040022001F070B9BDE87040032001F0C1
:101AD0006BB900008A070020B0070020704700F0B3
:101AE000C1BA00001CB50021019100912E4A106876
:101AF00040F4803010604FF4A043106800F40030D0
:101B000000900198401C0190009810B901989842EB
:101B1000F3D11068800302D50120009000E000910D
:101B2000009801283FD120484030016841F08051A1
:101B300001601E49086840F4404008601A480830B7
:101B400003680360036843F400430360036843F4DD
:101B5000A0530360041F164B2360136843F0807387
:101B6000136013689B01FCD50A6842F480320A6056
:101B70004A68D203FCD50A6842F400320A604A6817
:101B80009203FCD50B4A40F205711160016821F007
:101B900003010160016841F0020101600168C1F3C5
:101BA00081010229FAD11CBD0038024000700040BA
:101BB000195A4007003C02402DE9F04700F0D8F9DF
:101BC000DFF86081D8F80800401CC8F80800D8F891
:101BD0001010884274D10025C8F80850524C98F86B
:101BE00004000226271D01280CD1206880F008007F
:101BF0002060E1144D48FFF721FD012802D188F84B
:101C000004503E804A4A98F800001115012813D16B
:101C100098F8040080B9D8F80C0038B11180236816
:101C200083F008032360401EC8F80C00D8F80C00AD
:101C300010B93E8088F800503D4B98F801009B1C7D
:101C4000012826D198F8040018BBD8F80C004FF4EE
:101C5000FA6C60450AD21980D4F8009089F008091E
:101C6000C4F80090401CC8F80C000BE0604509D98E
:101C70001180D4F8009089F00809C4F80090401E43
:101C8000C8F80C00D8F80C00604502D13E8088F8F6
:101C9000015098F80200012824D198F8040008BBEC
:101CA000D8F80C0040F6B83C60450AD2198022688A
:101CB00082F00802226000F10100C8F80C000AE07E
:101CC0002DE008D91180226882F008022260A0F17C
:101CD0000100C8F80C00D8F80C00604502D13E8025
:101CE00088F8025098F80300012818D198F80400E9
:101CF000002814D1D8F80C0040F6AC52904207D21C
:101D00001980216881F008012160401CC8F80C008E
:101D1000D8F80C00904202D13E8088F80350BDE80C
:101D2000F08700002C000020140802400018024038
:101D3000181402400C480D490068B0FBF1F0401E39
:101D4000B0F1807F01D301200AE04FF0E02148612B
:101D5000074AF020107000208861072008610020E9
:101D6000002800D0FEE7704700000020A086010098
:101D700023ED00E010B51248016841F470010160E4
:101D80001048016841F0010101600E4A002108324B
:101D9000116002680C4B1A400260031D0B4A1A6066
:101DA000026822F48022026006480C300160FFF7CE
:101DB00099FE03494FF000608039086010BD0000B3
:101DC00088ED00E000380240FFFFF6FE10300024EE
:101DD00010B500F015F8BDE8104000F035B810B5AA
:101DE00001218C07204600F067F8002807D0012168
:101DF000204600F052F8BDE81040FFF705B810BDCE
:101E00003EB501210846FFF78FFD42F210700190A8
:101E10002920ADF800000020ADF80800ADF8020060
:101E20004FF080446946204600F064F801212046C6
:101E300000F030F801221146204600F049F8012157
:101E4000204600F02DF83EBD08B54FF4E060FFF7E6
:101E5000BBFC1C208DF8000000208DF80100012043
:101E60008DF802008DF803006846FFF779FC08BD85
:101E700010B5074C0121204600F01EF8002805D0BF
:101E80002046BDE81040012100F007B810BD000059
:101E900000040040C94301827047C9430182704772
:101EA000002904D0018841F00101018070470188B8
:101EB00021F001010180704702460020138A0B4087
:101EC00092890A40002B02D0002A00D001207047DE
:101ED000002A03D082890A438281704782898A431B
:101EE00082817047828822F07002828082880A4351
:101EF0008280704730B50288164C174DA0420DD035
:101F0000A8420BD0B0F1804F08D0144B984205D0B6
:101F1000134B984202D0134B984203D122F0700326
:101F20004A881A43104B984206D0104B984203D06F
:101F300022F440730A891A4302804A68C2620A88FE
:101F40000285A04201D0A84201D1897A01860121EF
:101F5000818230BD000001400004014000040040C7
:101F600000080040000C0040001000400014004039
:101F700003480168002902D00168491E01607047CA
:101F80006400002070B5184D0821284600F0CEF8F6
:101F900010B1284600F06AF92888144C000615D5BF
:101FA000124808300088000610D5114B1978481CDB
:101FB000C2B210481A70405C20805878824205D125
:101FC000002240F22771284600F0D7F840F2255150
:101FD000284600F0B2F8002805D02088C0B2BDE83D
:101FE0007040FFF751BA70BD004C0040044C0040F7
:101FF00040000020EA00002070B5174C0821204660
:1020000000F094F810B1204600F030F92088000666
:1020100013D5A189204609060FD5104B104D19780C
:102020004A1CD2B21A70695C818059788A4204D104
:10203000002240F2277100F0A0F840F2255120461E
:1020400000F07BF8002805D0A088C0B2BDE8704041
:10205000FFF706B970BD00000010014040000020ED
:10206000EA000020F0B400220B4C0C4E06E063782E
:10207000875C5D1C6570F754521CD2B28A42F6D35D
:1020800007488189090605D4F0BC012240F2277176
:1020900000F073B8F0BC704740000020EA00002058
:1020A0000010014010B500F08BF90A4801780129B1
:1020B0000FD10021017000F027FA51EC100BFEF750
:1020C00010F9054980B208800449A0F5985090386D
:1020D000886010BD6900002028000020B0070020A3
:1020E0008A05C9430180704740F66A120A0A012135
:1020F0009140C9430180704710B5028A22F4706391
:102100000A884C8822438C88C9880C4322431A438E
:10211000028210BD002904D0818941F400518181DF
:102120007047818921F40051818170470246002067
:1021300012880A4200D00120704770B5002440F692
:102140006A12C1F3421301F01F05012606FA05F2D7
:10215000012B0CD0022B0DD0838A1340090A8E402C
:10216000008830400BB100B10124204670BD838946
:102170001340F3E7038A1340F0E710B540F66A1303
:10218000C1F3421301F01F040121A140012B07D02C
:10219000022B07D014303AB102680A43026010BD26
:1021A0000C30F8E71030F6E702688A43026010BD91
:1021B0007FB504460D46208A20F44051E888084344
:1021C0002082A08941F20C618843A9882A891143A1
:1021D0006A8902431143A181A08A20F44071A88931
:1021E0000843A0826846FFF7D7FB1E48844202D00E
:1021F0001D48844201D1039800E00298A189090496
:1022000008D500EBC00101EB001029684900B0FBC4
:10221000F1F007E000EBC00101EB00102968890034
:10222000B0FBF1F06422B0FBF2F109010B096FF091
:1022300018056B4300EB8300A3891D044FF03203A4
:1022400007D503EBC000B0FBF2F000F00700084335
:1022500006E003EB0010B0FBF2F000F00F000843C3
:1022600020817FBD00100140001401408088C0F330
:1022700008007047FEE70000F0B587B00121082094
:10228000FFF744FB01214804FFF74EFB2B4F0722C9
:1022900006213846FFF7C2F9072205213846FFF725
:1022A000BDF900248DF81A408DF81B4002258DF8E9
:1022B0001850202005908DF8195005A93846FFF7D1
:1022C0006FF98DF818504020059005A93846FFF7A2
:1022D00067F98DF81A408DF81B4001208DF8180021
:1022E000C60205968DF8195005A93846FFF758F92A
:1022F0004FF496400190ADF80840ADF80A40ADF8B3
:102300000C40ADF810400C20ADF80E000C4C01A9AB
:102310002046FFF74DFF01212046FFF7FBFEFFF7A8
:102320000BFA012240F225512046FFF726FF3146E5
:102330003846FFF78AF907B0F0BD0000000C0240F4
:102340000044004002E008C8121F08C1002AFAD168
:1023500070477047002001E001C1121F002AFBD125
:102360007047000010B5FFF785F900F03DFBFEF760
:1023700015FFFEF739FAFEF789FEFFF7B5F9FFF70B
:10238000D9FCFEF7D7F8FFF777FFFEF719F9FFF74B
:102390000DF800F0C3FDFFF71BFDFEF76BF9FFF72B
:1023A0005FF8FFF7C7FCFFF785FAFEF751FFBDE8BE
:1023B000104001210148FFF773BD000000040040F8
:1023C0002DE9F047DFF8D48040F2255949464046D0
:1023D000FFF7B3FE0126324C324D002780B1404654
:1023E000FFF744FFE9886054EA88521CEA80E888D5
:1023F0000A2801D1EF802E7049464046FFF774FE4F
:102400002878012847D128498002088041002648C1
:10241000801E0180811401802F70AF70637A217853
:102420000922A87814F800C0BCF1AB0F02D109282A
:1024300000D02871092804D1AB2B02D1CD2900D1BD
:102440002A71401CC0B2A8700928EAD9297959B16B
:10245000481E68716879205C3D281CD1EF70104BD4
:10246000C1F109020A3B06E06A71F3E70F18E75D64
:102470001F54401CE870E8788242F7DCC1F10A0181
:10248000E97004E0421AA25C1A54401CE870E87833
:102490000928F7D96E70BDE8F087000000440040BD
:1024A000EE050020680000201A1C024010B50A0A40
:1024B000CBB201460448FEF7EBFBBDE810400249F1
:1024C0000248FEF70FBC00009000002000640040AE
:1024D00010B50749074C2068012808D10020064A9A
:1024E0000B5C1354401C0828FADB0020206010BD50
:1024F000AF0000202400002058000020014800897F
:10250000704700008E06002010B50C4908794A7902
:1025100040EA0260CA788979120242EA014108431E
:10252000FDF7D2FE9FED061B53EC112BFDF75AFE73
:1025300041EC100B044880ED020B10BDE4050020B7
:10254000000000000080D63F6800002000BF00BFF0
:1025500000BF00BF00BF00BF00BF00BF00BF00BF83
:1025600000BF00BF704700002DE9F0410E4D4FF451
:10257000807421462846FFF76AF80C4F6600314602
:102580003846FFF764F8FFF7E1FF31463846FFF7BA
:102590005CF8FFF7DBFF21462846FFF756F8BDE859
:1025A000F041FFF7D3BF00000000024000080240E6
:1025B0002DE9F0410E4D4FF4007421462846FFF7F7
:1025C00044F80C4F661031463846FFF73EF8FFF7E7
:1025D000BDFF31463846FFF73AF8FFF7B7FF21460F
:1025E0002846FFF734F8BDE8F041FFF7AFBF000021
:1025F000000802400000024070B5084D4FF480749E
:1026000021462846FFF723F8FFF7A0FF214628467A
:10261000FFF71BF8BDE87040FFF798BF00000240CD
:102620002DE9F0470446174F4FF48076314638467F
:10263000FFF70BF80025DFF850904FF4007804F016
:102640008000802819D041464846FEF7FEFF60060C
:10265000040EFFF77BFF31463846FEF7F8FFFFF721
:1026600075FF31463846FEF7F0FFFFF76FFF6D1C30
:10267000EDB2082DE3D3BDE8F08741464846FEF7AA
:10268000E6FFE4E7000002400008024010B50446FF
:10269000FFF76AFF7820FFF7C3FFFFF7ADFF0020C9
:1026A000FFF7BEFFFFF7A8FF2046FFF7B9FFFFF7D0
:1026B000A3FFBDE81040FFF77BBF10B50446FFF74E
:1026C00053FF7820FFF7ACFFFFF796FF4020FFF79E
:1026D000A7FFFFF791FF2046FFF7A2FFFFF78CFF50
:1026E000BDE81040FFF764BF1CB50025FFF73AFEB8
:1026F0004CF25030FEF750FE00F0F6F800F09CF976
:10270000DFF82CB1DFF82C9106264B4F4FF0FF0875
:102710004FF00C0A08249BF8040090B98BF8048051
:10272000E843C5B225B180214448FEF790FF03E09D
:1027300080214248FEF789FF99F87D0008B900F032
:1027400061FB9BF8050090B98BF8058099F87D0036
:10275000FF285FD006233AA205212820CDF800A04B
:1027600000F0F2FA4FF480713448FEF76EFF062352
:1027700036A214210020009400F0E6FACDE90064AE
:102780003A7A042314211E2000F083FA062331A292
:102790001E210020009400F0D7FACDE900641E212C
:1027A0003A790423084600F074FA06232BA2282164
:1027B0000020009400F0C8FACDE90064FA890423EF
:1027C00028211E2000F065FA062326A232210020CF
:1027D000009400F0B9FACDE90064BA7A04233221FA
:1027E0001E2000F056FA062320A214214620009451
:1027F00000F0AAFACDE90064B7F90C2004231421F3
:10280000642000F046FA00F04BF94FF47A70FEF7BE
:10281000C3FD80E7062317A205212820CDF800A0DC
:1028200000F092FA4FF480710448FEF710FF9EE723
:10283000860000208E0600209C070020001C02401D
:1028400043415220444154410000000067656172D9
:102850003A0000007468726F3A0000007374656596
:102860003A0000006272616B3A000000485F5F420C
:102870003A0000004450204552524F5200000000E0
:1028800010B5144A012807D0022814D0BDE8104022
:1028900091151046FEF7DBBE144608212046FEF7D0
:1028A000D6FE20212046FEF7D2FE2046BDE810408D
:1028B0001021FEF7CABE144608212046FEF7C5FEC9
:1028C00020212046FEF7C1FE2046BDE81040102121
:1028D000FEF7BDBE001C02400346012000E0584345
:1028E000491EC9B2FBD2704738B54CF2503420466D
:1028F000FEF752FD0021AE2000F050FA0021D52055
:1029000000F04CFA0021802000F048FA0021A820B5
:1029100000F044FA00213F2000F040FA0021D320CB
:1029200000F03CFA0021084600F038FA002140206F
:1029300000F034FA00218D2000F030FA002114203C
:1029400000F02CFA0021202000F028FA00210220BB
:1029500000F024FA0021A12000F020FA0021C0207C
:1029600000F01CFA0021DA2000F018FA00211220F1
:1029700000F014FA0021812000F010FA0021EF206D
:1029800000F00CFA0021D92000F008FA0021F12013
:1029900000F004FA0021DB2000F000FA00213020D2
:1029A00000F0FCF90021A42000F0F8F90021A62095
:1029B00000F0F4F90021AF2000F0F0F900F03CF84D
:1029C0002046FEF7E9FC1E2100915A23054A0A2100
:1029D000192000F0FBF800F063F82046BDE838400D
:1029E000FEF7DABCDE4300081CB501210846FEF7FD
:1029F0008DFF01210420FEF789FF4FF480700090C5
:102A000001208DF8040002218DF8051000218DF8B9
:102A100006108DF8070069460548FEF7C1FD4FF422
:102A20000070009069460348FEF7BAFD1CBD000027
:102A3000000002400008024030B40021084B002290
:102A4000002003EBC0046254401CC0B28028F8D3BD
:102A5000491CC9B20829F3D330BC00F021B80000EA
:102A60004008002010B57F2813D83F2911D807232C
:102A7000A3EBD103DBB201F00701C1F1070401218F
:102A8000A140C9B2054C04EBC0001AB1C25C0A43B4
:102A9000C25410BDC25C8A43C25410BD400800201D
:102AA00070B500250F4E05F1B000C0B2002100F056
:102AB00075F90021084600F071F90021102000F09E
:102AC0006DF9002406EBC400405D012100F066F9B9
:102AD000641CE4B2802CF5D36D1CEDB2082DE2D35A
:102AE00070BD0000400800202DE9FF4F81B00E4668
:102AF0000E9F9946B346780701D0012000E00020E0
:102B000000EBD70000FB09F0C0B20090203A02F0C1
:102B1000FF0A00254DE0B9F1060F01D1082F03D0BF
:102B2000B9F1060F07D008E025490AEB4A0001EB8E
:102B30004000445D0CE00C2F14D0B9F10C0F3BD1D8
:102B4000182F39D11F490AEBCA0001EB8000445D00
:102B50004FF0000820060CD531460F9A0198FFF778
:102B600081FF0DE018490AEB4A0001EB8000445D4B
:102B7000EEE70F9890B1002231460198FFF772FFFF
:102B80006006040E761CF6B2A6EB0B00B84207D125
:102B90005E460198401CC0B2019008E00122EBE7BC
:102BA00008F1010808F0FF08B8F1080FD2D36D1C36
:102BB000EDB200988542AED305B0BDE8F08F0000BD
:102BC000D42F0008823600080E3200082DE9FF4F8E
:102BD00083B0834610980C46A24602930BEB030188
:102BE000802903D9C3F18001C9B20291814621181D
:102BF000402903D9C0F1400101F0FF09410701D08C
:102C0000012100E0002101EBD00001905FEA497052
:102C100001D0012000E0002000EBD90000904FF02F
:102C2000000830E0002727E00198059908FB00F034
:102C30003944465C0025300605D501222146584618
:102C4000FFF710FF04E0002221465846FFF70AFF75
:102C50007006060E641CE4B2A4EB0A00484505D1D8
:102C600054460BF1010B0BF0FF0B03E06D1CEDB2B2
:102C7000082DE0D37F1CFFB200988742D4D308F11F
:102C8000010808F0FF0802988045CBD307B0BDE8E3
:102C9000F08F2DE9FF4F82B00746DDE90FA6904681
:102CA0001D464FF00009B8F1000F02DA0121C8F10A
:102CB0000008781F4FF0010B012909D0CDE9006B06
:102CC000C0B2534620220399FFF70EFF00242BE0E9
:102CD000CDE9006BC0B253462D220399FFF704FFE4
:102CE000F4E7281B401EC1B20A20FFF7F5FDB8FB30
:102CF000F0F00A21B0FBF1F201FB1200B9F1000F74
:102D000005D1691E8C4202DA98B14FF001093030CA
:102D1000C2B20AFB0470CDE9006BC0B253460399FE
:102D2000FFF7E2FE641CE4B2AC42DAD306B0BDE8C1
:102D3000F08F0AFB0470CDE9006BC0B2534620222D
:102D40000399FFF7D1FEEDE72DE9FC4104460D465E
:102D500016469846089F1BE0C8F18000A04202DAA0
:102D60000024E819C5B2C7F14000A84203DA0024E4
:102D70002546FFF761FE0120CDE900703278434619
:102D800029462046FFF7B0FE04EB0800C4B2761CCB
:102D9000307820385E28DFD9BDE8FC81002901D0D9
:102DA000FFF78BBCFFF772BC70B5114A022111808E
:102DB000002101220F4B104C104D114E002803D161
:102DC0001A70217029703170012803D11970227096
:102DD00029703170022803D1197021702A70317066
:102DE000032803D1197021702970327070BD000062
:102DF0001A0802402C0000202D0000202E00002088
:102E00002F00002070B586B00022AA2001AC8DF8FA
:102E100004008DF80500012003238DF80600002032
:102E200004258DF807008DF80800194890ED0A0A6E
:102E3000BCEEC00A10EE100A164E31888DF809104B
:102E4000090A8DF80A10318908268DF80B10090A35
:102E50008DF80C108DF80D00000A8DF80E008DF81D
:102E60000F300D238DF810508DF80860002004E01D
:102E7000215C1144CAB2401CC0B29842F8D3581C1D
:102E8000C1B2E25401A8FEF72AFE06B070BD0000F0
:102E9000C0070020B007002010B500036421B0FB7C
:102EA000F1F081B20020FEF7FBF80121BDE81040EF
:102EB0001020FEF7FFB80000081A00280FDB0528D5
:102EC00003DB9FED0C0B00F067B8022803DB9FEDDE
:102ED0000B0B00F061B89FED0B0B00F05DB84042AA
:102EE000022803DB9FED090B00F056B89FED090B9C
:102EF00000F052B848E17A14AE47FD3F9A9999998B
:102F00009999F53F8FC2F5285C8FEA3FF6285C8FD0
:102F1000C2F5E03F295C8FC2F528E43F2DE9FC4172
:102F200001216420FEF7F2FC0826009601208DF8AE
:102F3000040000248DF806408DF807008DF8054048
:102F4000DFF8488069464046FEF72AFBF701009704
:102F500069460F48FEF724FB022500956946404666
:102F6000FEF71EFBA80200908DF804408DF8075074
:102F700069460848FEF714FB04481A3006800449E5
:102F800018310F800580BDE8FC8100000008024078
:102F9000001402400018024010B59FED0B1B51ECCD
:102FA000100B53EC112BFDF71DF9FDF79AF981B2C7
:102FB000074841800020FEF773F80121BDE810406A
:102FC0001020FEF777B8000065934D36D964934022
:102FD00060000020000000000000000060FA6000B7
:102FE00000E0C000E0C000247E247E240024D456EB
:102FF000480000C6C81026C6006C926A040A000089
:10300000E0C0000000007C8200000000827C000024
:1030100000107C387C100010107C10100000070697
:103020000000001010101010000006060000000440
:1030300008102040007C8A92A27C000042FE020020
:1030400000468A92926200449292926C001828483C
:10305000FE0800F49292928C003C5292920C0080F6
:103060008E90A0C0006C9292926C006092929478C4
:1030700000003636000000003736000000102844FB
:1030800082000024242424240000824428100040CC
:10309000809A9060007C82BAAA78007E8888887EB8
:1030A00000FE9292926C007C8282824400FE8282B8
:1030B000827C00FE9292928200FE90909080007C32
:1030C0008292925E00FE101010FE000082FE8200CE
:1030D000000C020202FC00FE1028448200FE0202E4
:1030E000020200FE402040FE00FE402010FE007C58
:1030F0008282827C00FE90909060007C828A847A3A
:1031000000FE9090986600649292924C008080FE3F
:10311000808000FC020202FC00F8040204F800FCBB
:10312000023C02FC00C6281028C600E0100E10E089
:10313000008E92A2C2000000FE8282000040201099
:10314000080400008282FE0000204080402001012F
:10315000010101010000C0E0000000042A2A2A1E2B
:1031600000FE2222221C001C22222214001C2222E9
:1031700022FE001C2A2A2A1000107E9090000018BF
:103180002525253E00FE20201E00000000BE020076
:1031900000020121BE0000FE08142200000000FE13
:1031A0000200003E2018201E003E20201E00001CB1
:1031B0002222221C003F2222221C001C2222223F0B
:1031C00000221E22201000102A2A2A0400207C221D
:1031D0002400003C02043E00003804020438003C95
:1031E000060C063C003608083600003905063C008F
:1031F00000262A2A320000107C828200000000EEA5
:103200000000000082827C100040804080000000AE
:1032100000000000000000000000000000003F402F
:1032200000000000000000003000400030004000BE
:10323000000009000BC03D000BC03D00090018C094
:1032400024407FE0224031800000180024C01B0091
:103250000D803240018003801C4027401C800740C5
:1032600000401000600000000000000000000000AE
:10327000000000001F80204040200000402020402F
:103280001F8000000000090006001F8006000900E2
:103290000000040004003F8004000400000000104F
:1032A00000600000000000000000040004000400B2
:1032B00004000400000000000040000000000000C6
:1032C0000000002001C006003800400000001F8000
:1032D0002040204020401F800000000010403FC0E0
:1032E00000400000000018C0214022402440184047
:1032F000000010802040244024401B800000020079
:103300000D0011003FC0014000003C8024402440DB
:103310002440238000001F80244024403440038048
:1033200000003000200027C03800200000001B8073
:103330002440244024401B8000001C0022C0224066
:1033400022401F8000000000000008400000000034
:103350000000000000000460000000000000000009
:1033600004000A0011002080404009000900090003
:1033700009000900000000004040208011000A0000
:1033800004001800200023402400180000001F80C3
:103390002040274029401F400000004007C039005E
:1033A0000F0001C0004020403FC0244024401B804B
:1033B00000001F802040204020403080000020403E
:1033C0003FC0204020401F80000020403FC02440DC
:1033D0002E4030C0000020403FC024402E0030006E
:1033E00000000F0010802040224033800200204067
:1033F0003FC0040004003FC02040204020403FC0A8
:103400002040204000000060202020203FC02000FD
:10341000200020403FC024400B0030C0204020400E
:103420003FC020400040004000C03FC03C0003C0FF
:103430003C003FC0000020403FC00C4023003FC084
:1034400020001F802040204020401F80000020409E
:103450003FC024402400180000001F80214021406C
:1034600020E01FA0000020403FC02440260019C0DB
:10347000004018C024402440224031800000300029
:1034800020403FC020403000000020003F8000402E
:1034900000403F80200020003E0001C007003800AF
:1034A0002000380007C03C0007C038000000204062
:1034B00039C0060039C0204000002000384007C055
:1034C000384020000000304021C02640384020C055
:1034D0000000000000007FE04020402000000000CD
:1034E00070000C00038000400000000040204020DD
:1034F0007FE00000000000002000400020000000ED
:10350000000000100010001000100010001000005B
:1035100000004000000000000000000002800540A4
:10352000054003C0004020003FC004400440038029
:10353000000000000380044004400640000000003A
:103540000380044024403FC0004000000380054049
:10355000054003400000000004401FC024402440F8
:103560002000000002E005500550065004202040D5
:103570003FC00440040003C000400000044027C0D6
:1035800000400000000000100010041027E00000C0
:10359000000020403FC00140070004C0044020401C
:1035A00020403FC000400040000007C0040007C0AA
:1035B000040003C00000044007C00440040003C02E
:1035C0000040000003800440044003800000041019
:1035D00007F0045004400380000000000380044012
:1035E000045007F00010044007C00240040004002B
:1035F0000000000006400540054004C00000000037
:1036000004001F80044000400000040007800040C8
:10361000044007C000400400070004C00180060009
:103620000400060001C0070001C0060000000440BD
:1036300006C0010006C0044000000410071004E0AA
:103640000180060004000000044005C0064004405C
:1036500000000000000004007BE0402000000000AB
:1036600000000000FFF000000000000040207BE0B0
:103670000400000000004000800040002000200006
:1036800040000000000000000000000000000000FA
:10369000000000000000000000000000000000002A
:1036A000000000000000000000000000000000001A
:1036B00000000000000F80380FFE380F8038000037
:1036C00000000000000000000000000000000000FA
:1036D0000100000600000C00003800003100000668
:1036E00000000C0000380000300000000000000066
:1036F000000061800067F807F98000618000618048
:103700000061800061800067F807F9800061800037
:10371000000000000000000001C0E003E0F00630FF
:10372000080418081FFFFE040E080787F00381E055
:1037300000000000000001F000060C000404080670
:103740000C7001F9C0000E00003BE000EC18070807
:1037500008040C180003E00000000001E00007F07E
:1037600003F818041C0804170807E1D003C0E000A0
:1037700023B0003C080020080000100000000000FA
:10378000000100003100003200001C0000000000B9
:103790000000000000000000000000000000000029
:1037A0000000000000000000000000000000000019
:1037B00000007F0001FFC00780F00C00181000041B
:1037C0002000020000000000002000021000040C95
:1037D00000180780F001FFC0007F0000000000001B
:1037E0000000000000000000000000000000420097
:1037F000006600006600003C0000180003FFC000E7
:103800001800003C00006600006600004200000056
:103810000000080000080000080000080000080080
:1038200001FFC000080000080000080000080000B8
:10383000080000000000000100003100003200001C
:103840001C0000000000000000000000000000005C
:103850000000000000000000000008000008000058
:103860000800000800000800000800000800000828
:103870000000080000080000000000000000000038
:103880000000380000380000380000000000000090
:103890000000000000000000000000000000000028
:1038A0000000000600001C000070000180000E00F7
:1038B00000380000C0000700001C000030000000BD
:1038C0000000000000007F8001FFE0038070060020
:1038D0001804000804000806001803807001FFE0C7
:1038E000007F8000000000000000000001000801CF
:1038F000000801000803FFF807FFF80000080000B7
:103900000800000800000000000000000001C038AE
:1039100002C0580400980401180402180404180690
:103920001C1803F81801E0F8000000000000000077
:103930000001C0E003C0F0040008040808040808FF
:1039400006180803F41801E7F00001E00000000089
:103950000000000000000300000D000011000061E5
:103960000000810803010807FFF80FFFF8000108B5
:103970000001080000000000000000E007FCD00685
:103980000808061008061008061008061838060F62
:10399000F00607C0000000000000000000003F80AB
:1039A00001FFE00384300208180410080410080422
:1039B0001008071810030FF00007C00000000000F7
:1039C0000000000003C0000700000600000600F829
:1039D0000607F806180006E00007000006000000D1
:1039E000000000000001E1E003F7F00634100418C5
:1039F00008041808040C08040C0806161803F3F051
:103A000001C1E000000000000000F80003FC3003EA
:103A1000063804020804020804020804041003081B
:103A2000F001FFC0007F0000000000000000000067
:103A30000000000000000000000070380070380036
:103A400070380000000000000000000000000000CE
:103A50000000000000000000000000000000301A1C
:103A600000301C000000000000000000000000000A
:103A70000000000000000000000800001400002208
:103A8000000041000080800100400200200400107E
:103A900008000800000000000000210000210000D4
:103AA0002100002100002100002100002100002150
:103AB00000002100002100000000000000000000C4
:103AC000080008040010020020010040008080006F
:103AD0004100002200001400000800000000000067
:103AE0000003C00004C000040000080038080F38BC
:103AF0000808380810000C300007E00003C0000080
:103B00000000000000003F8000FFE0038070020F13
:103B10001006708804C088048308047F8802C0905F
:103B200003012000FE400000080000180001F8001A
:103B30003E0801C20007020007E20000FE00001F6D
:103B4000C80001F800003800000804000807FFF86A
:103B500007FFF80408080408080408080408080611
:103B6000180803F41801E7F00001E000000000006D
:103B700000003F8001FFE00380700200180400088D
:103B80000400080400080400100600200780C0009C
:103B9000000004000807FFF807FFF804000804000D
:103BA0000804000804001802001003807001FFE000
:103BB000007F8000000004000807FFF807FFF804FA
:103BC0000808040808040808040808043E0804005B
:103BD0000806001801006000000004000807FFF854
:103BE00007FFF8040808040800040800040800049B
:103BF0003E000600000600000180000000000000FA
:103C000000003F8001FFE0038070060018040008F8
:103C10000402080402080203F00783F00002000017
:103C2000020004000807FFF807FFF804080800086E
:103C30000000080000080000080004080807FFF85A
:103C400007FFF8040008000000000000040008045A
:103C5000000804000807FFF807FFF8040008040044
:103C6000080400080000000000000000000000063A
:103C70000000070000010400010400010400030724
:103C8000FFFE07FFFC040000040000040000040025
:103C90000807FFF807FFF8040C08001800003E00B2
:103CA00004C7800503C80600F804003804001800A3
:103CB000000804000807FFF807FFF80400080000E8
:103CC00008000008000008000008000008000018B4
:103CD00000006000000004000807FFF807800807E4
:103CE000FC00007FC00003F80007C00078000780D8
:103CF0000807FFF807FFF804000804000807FFF8AA
:103D000007000803C00000E000003800001E0000AB
:103D100007000001C00400F007FFF80400000000E5
:103D200000007F8001FFE003807006001804000897
:103D300004000806001803003001FFE0007F800047
:103D4000000004000807FFF807FFF8040408040453
:103D500000040400040400040400060C0003F8003E
:103D600001F000000000000000007F8001FFE00380
:103D700080700600880400880400C806003C030028
:103D80003E01FFE6007F8400000004000807FFF802
:103D900007FFF8040808040800040C00040F0004DE
:103DA0000BC00610F003F03801E008000008000026
:103DB0000001E0F803F03006301004180804180879
:103DC000040C08040C080206180207F00781E00042
:103DD0000000018000060000040000040000040050
:103DE0000807FFF807FFF8040008040000040000BB
:103DF00006000001800004000007FFE007FFF00458
:103E0000001800000800000800000800000800007A
:103E10000804001007FFE004000004000006000092
:103E200007E00007FE00041FE00001F80000380072
:103E300001E0043E0007C00006000004000004008A
:103E40000007E00007FFC0041FF80007C007F800E4
:103E500007FF80043FF80007C004F80007000004D3
:103E6000000000000004000806001807C07805F1F3
:103E7000C8003E00001F800463E80780F8060018B1
:103E8000040008000000040000060000078000078E
:103E9000E008047C08001FF80007F800180804E098
:103EA00008070000060000040000000000010008F0
:103EB0000600380400F80403E8040F08047C080531
:103EC000F00807C0080700180400600000000000A8
:103ED000000000000000000000000000003FFFFEA6
:103EE0002000022000022000022000022000020028
:103EF000000000000000000008000007000000C0F3
:103F0000000038000006000001C000003000000E74
:103F1000000001000000000000000000200002205E
:103F200000022000022000022000023FFFFE0000ED
:103F30000000000000000000000000000000000081
:103F400000000008000010000030000020000030D9
:103F50000000100000080000000000000000000049
:103F6000010000010000010000010000010000014B
:103F7000000001000001000001000001000001003C
:103F800000010000000000000000002000002000F0
:103F90000010000010000000000000000000000001
:103FA0000000000000000000000000F00019F80010
:103FB0001B18002208002608002408002410003FD7
:103FC000F8001FF8000008000018000000040000BE
:103FD00007FFF80FFFF00018180010080020080075
:103FE0002008003018001FF0000FC0000000000083
:103FF000000007C0001FF000183000200800200853
:10400000002008003C08001C1000006000000000B8
:1040100000000000000007C0001FF000381800205A
:104020000800200800200804101007FFF80FFFF018
:104030000000100000000000000000000007C000A9
:104040001FF000123000221800220800220800325F
:1040500008001E10000E20000000000000002000DC
:1040600000200800200801FFF803FFF806200804DC
:1040700020080420080720000300000000000000C2
:104080000000000E000E6E001FF30031B10020B1E1
:104090000020B1003191001F13002E1E00200E00E1
:1040A000300000000004000807FFF80FFFF80010C0
:1040B00008002000002000002008003FF8001FF842
:1040C00000000800000000000000000000200800C0
:1040D0002008002008063FF8063FF800000800000E
:1040E00008000008000000000000000000000000C0
:1040F000000003000003002001002001002003064F
:104100003FFE063FFC000000000000000000000031
:104110000004000807FFF80FFFF800018800030003
:10412000002FC00038F800203800200800000800E8
:104130000000000000000000040008040008040063
:104140000807FFF80FFFF80000080000080000084B
:10415000000000000000002008003FF8003FF800C9
:104160001008002000003FF8003FF8001008002071
:1041700000003FF8003FF8000008000000002008A1
:10418000003FF8003FF80010080010000020000079
:104190002008003FF8001FF80000080000000000A1
:1041A000000007C0000FF0001830003008002008A1
:1041B000002008003008001830000FF00007C00091
:1041C0000000000000002001003FFF003FFF001042
:1041D00011002009002008002008003038001FF0DE
:1041E000000FC00000000000000007C0001FF0002A
:1041F0003818002008002008002009001011001FB6
:10420000FF003FFF00000100000000200800200820
:10421000002008003FF8003FF800080800100800E0
:1042200020080020000030000030000000000000E6
:1042300000000000000C78001E180033080023085E
:104240000021080021880021980030F0003860002B
:10425000000000000000200000200000200000FFFF
:10426000F003FFF8002008002008002008000030BC
:10427000000000000000000000002000003FF000EF
:104280007FF8000018000008000008002010003F20
:10429000F8007FF000001000000000000000200087
:1042A000003000003C00003F800023F00000780058
:1042B0000070002380003C0000300000200000203F
:1042C00000003C00003FE00023F80000E000270071
:1042D000003E00003FE00021F80001E0003E000049
:1042E0002000000000002008002008003838003EB0
:1042F000680027800003C8002CF800383800201818
:104300000020080000000000000020000030030032
:104310003C01003F830023EC000070002380003C40
:10432000000020000020000000000000000000004D
:104330000038080020380020F80023E8002F88000B
:104340003E0800380800201800007000000000003F
:104350000000000000000000000000000000080055
:104360000014001FF7FC30000620000200000000CF
:10437000000000000000000000000000000000003D
:1043800000000000FFFFFF00000000000000000030
:1043900000000000000000000000000020000230CB
:1043A00000061FF7FC0014000008000000000000D9
:1043B00000000000000000000000000000180000E5
:1043C00060000040000040000020000010000008D5
:1043D00000000400000400000C00001000000000B9
:1043E0000000010000000380000003800000038043
:1043F00000000EC000003C700000703800003C70EF
:1044000000000EC0000003807FC00380FFE0038334
:10441000FFF00103FFF00107E0F00007C078000F94
:104420008038000F8E38000F0E38000F8C380007D0
:104430008FF800078FF800078FF800078FF0000053
:104440000FE00000000000003F000000FFE000035C
:10445000FFF00007FFF00007C0F8000FC078000F62
:104460008038000F8038000F8038000F8038010737
:10447000C0F80387FFF00383FFF00781FFE00EC061
:10448000FFE03C707F00703800003C703F000EC0C1
:10449000FFE00783FFF00383FFF00387C0F8010705
:1044A0008038000F8038000F8C38000F0C38000F58
:1044B0000E3800078FF800078FF800078FF0000014
:1044C0000FF0000000000000000000001E000000CF
:1044D000FFC00003FFE00003FFF00007C0F8000783
:1044E000807800078038000F8038000F8038000F78
:1044F0008038000780780007E1F00003FFF0000338
:10450000FFE00000FFC001000C00038000000380FA
:1045100000000380000007C000000EE000003C70B7
:104520000000783800003C7000000EC0000007C09A
:1045300000000780000003800000038000000100ED
:10454000000000000000000000000000000000006B
:10455000704500080000002090000000442300087F
:104560000046000890000020B00F0000542300080F
:104570000095BA0A000000000000000001020304D8
:1045800006070809000000000102030401020304F9
:1045900006070809000000000000000000000000FD
:1045A00001000000000000000000000023000000E7
:1045B000000000000000000000000000CDCC4C3ED8
:1045C00000000000000000000000000000000000EB
:1045D00000000000000000000000000000000000DB
:1045E00000000000000000000000000000000000CB
:1045F00000000000000000000000000000000000BB
:04000005080001AD41
:00000001FF
